:100000001DC7000053C7000051C700000C9409270A
:100010004DC700004BC7000049C7000047C700009C
:1000200045C7000043C700000C94822C0C944E2D51
:100030000C9470243BC7000039C7000037C700008C
:1000400035C7000033C7000031C700002FC70000CC
:100050002DC700000C94282529C7000027C70000E1
:1000600025C7000023C7000021C700001FC70000EC
:100070001DC700001BC7000019C7000017C70000FC
:1000800015C7000013C7000011C700000FC700000C
:100090000DC700000BC7000009C7000007C700001C
:1000A00005C7000003C7000001C7000000040104E9
:1000B0000204030404040504000501050205030508
:1000C00004050505000601060206030604060506EA
:1000D00000070107020703070407050700000100E6
:1000E00002000300040005000001010102010301F8
:1000F00004010501000201020202030204020502DA
:10010000000301030203030304030503716D6B2065
:10011000636F6D70696C65202D6B62206B6C6F7204
:10012000202D6B6D2064656661756C7400000000A5
:1001300000000000000000000000000000000000BF
:1001400000000000000000000000000000F0F0F0DF
:10015000F0FFFFFFFFFFFFFFFFFFFFFFFFFFFFFFBE
:10016000FFFFFFFFFFFFFFFFFFFFFFFFFFFFFFFF9F
:10017000FFFFFFFFFFFFFFFFFFFFFFFFFFFFFFFF8F
:10018000FFFFFFFFFFFFFFFFFFF0F0F0F0000000B8
:10019000000000000000000000000000000000005F
:1001A000000000000000000000000000000000004F
:1001B000000000000000000000000000000000003F
:1001C00000000000000000000000000000FFFFFF32
:1001D000FFFFFFFFFFFFFFFFFFFFFFFFFFFFFFFF2F
:1001E000FFFFFFFFFFFFFFFFFFFFFFFFFFFFFFFF1F
:1001F000FFFFFFFFFFFFFFFFFFFFFFFFFFFFFFFF0F
:10020000FFFFFFFFFFFFFFFFFFFFFFFFFF000000FB
:1002100000000000000000000000000000000000DE
:1002200000000000000000000000000000000000CE
:10023000000000000000000000F0F0F0F0FFFFFF01
:10024000FFFFFFFFFFFFFFFFFFFFFFFFFFFFFFFFBE
:10025000FFFFFFFFFF0F0F0F0F0000000000000067
:10026000000F0F0F0FFFFFFFFFFFFFFFFFFFFFFF5D
:10027000FFFFFFFFFF0F0F0F0F0000000000000047
:10028000000F0F0F0FFFFFFFFFFFFFFFFFFFFFFF3D
:10029000FFFFFFFFFFFFFFFFFFFFFFFFFFF0F0F09B
:1002A000F00000000000000000000000000000005E
:1002B000000000000000000000FFFFFFFFFFFFFF45
:1002C000FFFFFFFFFFFFFFFFFFFFFFFFFFFFFFFF3E
:1002D000FFFFFFFFFFF0F0F0F00000000000000063
:1002E00000F0F0F0F0FFFFFFFFFFFFFFFFFFFFFF59
:1002F000FFFFFFFFFFF0F0F0F00000000000000043
:1003000000F0F0F0F0FFFFFFFFFFFFFFFFFFFFFF38
:10031000FFFFFFFFFFFFFFFFFFFFFFFFFFFFFFFFED
:10032000FF000000000000000000000000000000CE
:10033000000000000000000000FFFFFFFFFFFFFFC4
:10034000FFFFFFFFFFFFFFFFFFFFFFFFFFFFFFFFBD
:10035000FFFFFFFFFFFFFFFFFFFFFFFFFFFFFFFFAD
:10036000FFFFFFFFFF0F0F0F0F0F0F0F0F0F0F0FED
:100370000F0F0F0F0FFFFFFFFFFFFFFFFFFFFFFF3D
:10038000FFFFFFFFFFFFFFFFFFFFFFFFFFFFFFFF7D
:10039000FFFFFFFFFFFFFFFFFFFFFFFFFFFFFFFF6D
:1003A000FF0000000000000000000000000000004E
:1003B0000000000000000000000F0F0F0FFFFFFF04
:1003C000FFFFFFFFFFFFFFFFFFFFFFFFFFFFFFFF3D
:1003D000FFFFFFFFFFFFFFFFFFFFFFFFFFFFFFFF2D
:1003E000FF0F0F0F0F00000000F0F0F0F0F0F0F042
:1003F000F0000000000F0F0F0FFFFFFFFFFFFFFFD8
:10040000FFFFFFFFFFFFFFFFFFFFFFFFFFFFFFFFFC
:10041000FFFFFFFFFFFFFFFFFFFFFFFFFF0F0F0FBC
:100420000F000000000000000000000000000000BD
:1004300000000000000000000000000000000000BC
:1004400000000000000000000000000000FFFFFFAF
:10045000FFFFFFFFFFFFFFFFFFFFFFFFFF0F0F0F7C
:100460000F00000000F0F0F0F0FFFFFFFFFFFFFFC4
:10047000FFF0F0F0F0000000000F0F0F0FFFFFFF84
:10048000FFFFFFFFFFFFFFFFFFFFFFFFFF00000079
:10049000000000000000000000000000000000005C
:1004A000000000000000000000000000000000004C
:1004B000000000000000000000000000000000003C
:1004C00000000000000000000000000000FFFFFF2F
:1004D000FFFFFFFFFFFFFFFFFFFFFFFFFFF0F0F059
:1004E000F0F0F0F0F0FFFFFFFFFFFFFFFFFFFFFF67
:1004F000FFFFFFFFFFF0F0F0F0F0F0F0F0FFFFFF84
:10050000FFFFFFFFFFFFFFFFFFFFFFFFFF000000F8
:1005100000000000000000000000000000000000DB
:1005200000000000000000000000000000E1E1E128
:10053000E1E1E1E1E1E1E1E1008F9000939400E18C
:10054000E100919200A0A1A2A3A4E100B7B800B578
:10055000B6008081828384E100E1E1E1E1E1E1E153
:10056000E1E1E1E1E1E100979800959600C0C0C0AB
:10057000C0C0C0C0C0C0C0C0C0C0C0C0C0C0C0C07B
:10058000C0C000000014001A000800150017002B5E
:100590000004001600070009000A00E0001D001B0F
:1005A000000600190005000000E200417E2C00005A
:1005B00000A8000000130012000C0018001C0034FA
:1005C0000033000F000E000D000B00E5003800376F
:1005D000003600100011000000E300427E2A0000F7
:1005E00000AE0000002900530052002E002F0239F7
:1005F000004A00500051004F002F00437E01004B85
:10060000004E00010026020000E20001000100008F
:1006100000A80000005700610060005F0030023455
:10062000022D005E005D005C003000010055005BA3
:10063000005A00590027020000620001004C00002F
:1006400000AE0000001E021F022002210222020151
:100650000001000100010001000100010001000192
:100660000001000100010000000100010001000084
:1006700000A800000027022602250224022302010E
:100680000001000100010001000100010001000162
:100690000001000100010000000100010001000054
:1006A00000AE0000008274427C23782178010000B3
:1006B0007C027C407E257801000100457E447E015D
:1006C0000027780100010000000100010001000086
:1006D00000A80000006900420041004000010068DD
:1006E0000045003F003E003D000100440043003C47
:1006F000003B003A00010000000100010001000081
:1007000000AE0000AE00AF00DA1281FFD9F1DB20AD
:10071000A4A62EAF00A0C0D30000A1C8D30000AE95
:10072000D580A83F408D1420000000000000003E4E
:100730005B4F5B3E003E6B4F6B3E001C3E7C3E1CA5
:1007400000183C7E3C18001C577D571C001C5E7F27
:100750005E1C0000183C180000FFE7C3E7FF000024
:100760001824180000FFE7DBE7FF0030483A060EC8
:1007700000262979292600407F05050700407F05CE
:10078000253F005A3CE73C5A007F3E1C1C080008ED
:100790001C1C3E7F0014227F2214005F5F005F5FFD
:1007A0000006097F017F00006689956A006060602D
:1007B00060600094B6FFB69400080C7E0C08001030
:1007C000307E30100008083E1C0800081C3E080857
:1007D000001E10101010000C1E0C1E0C0030383EB5
:1007E000383000060E3E0E0600000000000000003B
:1007F000005F000000000700070000143E143E14D4
:10080000002E2A7F2A3A0020120824020037494984
:10081000375000000807030000001C2241000000C0
:1008200041221C00002A1C7F1C2A0008083E0808E0
:100830000000807030000008080808080000006010
:100840006000002010080402007F5149457F000825
:1008500004027F0000714949494F004141494977ED
:10086000000F1010107F004F49494971007E49491F
:10087000497000010171090700774949497700076C
:100880004949493F000000140000000040340000C6
:100890000000081422410014141414140000412212
:1008A000140800010159090F007F415D594F007F75
:1008B0000909097F007F49494976007F414141414B
:1008C000007F4141417E007F49494949007F090934
:1008D0000909007F4141497B007F0808087F00002B
:1008E000007F000000704040407F007F08080877CC
:1008F000007F40404040007F011F017F007F0408CF
:10090000107F007F4141417F007F0909090F007F6F
:100910004171417F007F0909196F004749494979B1
:100920000001017F0101007F4040407F001F204007
:10093000201F007F407F407F007708080877004F26
:100940004848487F00615149454300007F414100CC
:10095000000204081020000041417F000004020151
:1009600002040040404040400000000708000060D2
:100970005454547C007F44444478007C44444444B0
:1009800000784444447F007C5454545C00087F0940
:1009900009090038A4A4A4FC007F04040478000022
:1009A000007D0000007040407D00007F0808087650
:1009B0000000007F4000007C047C047C007C040478
:1009C0000478007C4444447C00FC2424243800380F
:1009D000242424FC007C04040404005C5454547457
:1009E0000004047F0404007C4040407C001C204044
:1009F000201C007C407C407C006C1010106C00BC03
:100A0000A0A0A0FC004464544C44000008364100FF
:100A100000000077000000004136080000020102DB
:100A20000402003C2623263C000000E0F0F0F0F039
:100A3000FEFF9F0F0F9FFFFFFFFF9F0F0F9FFFFE08
:100A4000F0F0F0F0E00000FF000000000000C03017
:100A50000C0300000000FF0000000000000000E0A8
:100A60001008040202020101010101010202020454
:100A70000810E000000000FF010101010101010177
:100A80000101FF7F515555457F415F5F5F7F007FCB
:100A9000417B77417F415F5F5F7F007F415D5D5DAF
:100AA0007F415F5F5F7F00C0E0F0F0F0E0E6F7F3CA
:100AB000F060007C7C7C7C7C007C7C7C7C7C00F816
:100AC0001CDE1FFFFFFF1FDE1CF800C0E2B4F8F8B9
:100AD000F8F8F8B4E2C000000000000000000000D8
:100AE0000000000000000000000000070F0F0F0FC3
:100AF000FFFFFFFF9F87E1F9F9E1879FFFFFFFFFFE
:100B00000F0F0F0F070000FF0000C0300C33C000B4
:100B1000000000000000FF000000000000003FC0D7
:100B200000000000000000000000000000000000C5
:100B30000000C03F000000FF08080808080838C887
:100B400008080F7E00007F00007800007E0000246F
:100B50002412122424484824241212000000000009
:100B6000000000000000000F1F3F7F7F3F3F7F7F9E
:100B70003810001F1F1F1F1F001F1F1F1F1F000FE8
:100B80001421404541454021140F007D7D7D7D7D30
:100B90007D7D7D7D7D7D0000000000000000000067
:100BA0000000000000000000000808080808080015
:100BB0000000000000000000000000000000000035
:100BC000000000000000003F0C03000000000003D4
:100BD0000C30000000003F20202020202020200199
:100BE00002040810101020202020202010101008CF
:100BF000040201000000003F0000000000000000AF
:100C0000030C304000004000004000004000001C89
:100C10003E3E3E1C003E1C1C0808003E3E3E3E3E42
:100C200000000000000000000000000000000000C4
:100C300000000000000000000000000000000000B4
:100C400000000000000000000000000000000000A4
:100C50000000000000000000000000000000000094
:100C60000000000000000000000000000000000084
:100C7000002A2B28000000000000000000000000F7
:100C80000000000029000000002C1E342021222436
:100C9000342627252E362D3738271E1F20212223C4
:100CA0002425263333362E37381F04050607080956
:100CB0000A0B0C0D0E0F101112131415161718191C
:100CC0001A1B1C1D2F3130232D350405060708097A
:100CD0000A0B0C0D0E0F10111213141516171819FC
:100CE0001A1B1C1D2F3130354C0000000000000085
:100CF00000000000000000000000000000000000F4
:100D0000000000000000000000000000007E0F0056
:100D1000D4FFFFFFC7000000780A034B004C004FD0
:100D200000520000000C03470045004900530054E6
:100D30000000000403090409025B00030100A0FA9B
:100D40000904000001030101000921110100012231
:100D500044000705810308000109040100020300A3
:100D60000000092111010001222200070582032051
:100D7000000107050303200001090402000103002C
:100D8000000009211101000122320007058403201F
:100D90000001120100020000000806130880300163
:100DA000010200010660FF0961A101096215002628
:100DB000FF009520750881020963150026FF009544
:100DC0002075089102C005010980A1018503190160
:100DD0002AB700150126B700950175108100C005DE
:100DE0000C0901A101850419012AA002150126A000
:100DF00002950175108100C005010906A1010507D2
:100E000019E029E715002501950875018102950172
:100E1000750881010507190029FF150026FF0095B7
:100E20000675088100050819012905150025019599
:100E30000575019102950175039101C011241FBE32
:100E4000CFEFDAE0DEBFCDBF04B603FE18C080915D
:100E5000A0079091A107A091A207B091A3078730A6
:100E6000904BA740B04B59F41092A0071092A107E5
:100E70001092A2071092A307E0E0F8E3099512E0B0
:100E8000A0E0B1E0EEE1F0E602C005900D92A831DD
:100E9000B107D9F727E0A8E1B2E001C01D92A03A5E
:100EA000B207E1F70E94B2190C94E42FA9C882E0BE
:100EB000089508950895CF9360E08DE695E00E942F
:100EC0007E1B8091740360E080FF55C08AE695E048
:100ED0000E946D1B60E089E595E00E946D1B60E05B
:100EE00082E595E00E946D1B8091740360E080FFB5
:100EF00045C08FE495E00E946D1B60E089E595E0B8
:100F00000E946D1B60E085E495E00E946D1B60E02F
:100F10008DE695E00E947E1B0E948A23C82F60E028
:100F200082E495E0C0FD02C08FE395E00E946D1B56
:100F300060E08CE395E0C1FD02C08FE395E00E9484
:100F40006D1B60E089E395E0C2FD02C08FE395E090
:100F50000E946D1B60E08DE295E00E946D1B60E0D9
:100F60008FE395E00E946D1B60E08FE395E00E94A7
:100F70006D1BCF91089587E695E0AACF8CE495E0AC
:100F8000BACFCF93C82F9091540280915502892BEC
:100F900099D16CE571E0823039F0F0F466E571E0EA
:100FA000811102C06AE471E087E593E00E94932F0B
:100FB00080911A0290911B021816190634F067E509
:100FC00073E08CE192E00E94932F23E042E061E025
:100FD0008C2F5AD6CF91089562E671E0833021F3C9
:100FE00069E671E0E1CF0E94F31C882351F00E9472
:100FF0002817882341F060E08CE192E00E94691B91
:101000005ADF80E0089560E074E08DE291E00E9494
:10101000821BF7CF9C01FB0123348EE7380709F4CC
:101020004FC070F421348EE73807B1F122348EE7D7
:10103000380709F43EC020343E4741F181E008956D
:1010400024348EE7380771F025343E47B9F785819F
:101050008823A1F360E08CE091E00E942E2188E2D9
:10106000B7D2ECCF8581882389F090917403892FC2
:101070008E7F90FF816080937403809173039091C1
:1010800074030E94611181D480E0089585818823D2
:10109000D9F380E0ACD0F8CF8581882319F081E0C6
:1010A000EED402C081E0F6D443E062E081E009D6EC
:1010B000EBCF8581882311F082E0F2CF82E0F3CF7D
:1010C0008581882319F083E0DAD4DECF83E0E2D48F
:1010D000DBCFCF93C62F811108C08AEA611101C00E
:1010E00089EA76D280E0CF9108958130D9F7ACD4E7
:1010F000882329F08BEAC111F4CF8CEAF2CF8EE479
:10110000C111EFCF8BE4EDCF8430B8F46830A8F490
:10111000463098F4E42FF0E096E0699FE00DF11D71
:10112000112490E3899FE00DF11D1124EE0FFF1FA4
:10113000ED57FA4F85919491089581E090E00895DC
:1011400081E00895FDCF089581E0089563CF08956B
:101150000895FECF0895A6E0B0E0E1EBF8E00C942E
:101160004C2F49835A839E8330913F0289819A8113
:10117000311117C03E81332389F0222379F02DD518
:10118000182F682F89819A8106D569817A81812FEC
:101190000E94E5132696E3E00C94682F0DD5182FD6
:1011A000F4CF1BD569817A81F3CFFC01262F4081D2
:1011B00051816281738184819581CDCF0895CF93D0
:1011C000DF93D82FC92F61E0F0DF6D2F7C2FBADFBE
:1011D000DF91CF910895CF93DF93D82FC92F60E08F
:1011E000E4DF6D2F7C2FB5DFDF91CF910895CF9392
:1011F000DF93C1E0D0E001C0CC0F8A95EAF78C2FD5
:101200000E9456118C2F08D4DF91CF91089581E070
:101210000895FDCF0895CF93C82FB7D38C2FF9DF52
:101220002FEF84E39CE0215080409040E1F700C024
:101230000000CF91089581E0EEDF0C944C250895D5
:1012400080E0E9DF0C94702508950F931F93CF93EE
:10125000DF93EC0161E0A9DF8C01BE010E94342222
:101260008823D1F0BE01C80171DF8823A9F0BE0137
:10127000C8010E949521882379F08D818823A9F0E7
:1012800001308CE7180779F003308CE7180751F02C
:1012900001151C4751F4CFDF80E0DF91CF911F9102
:1012A0000F910895E6D7CCDFF7CFCE014DDFF5CF14
:1012B0000E94512432D00C94D61C089531D00C9445
:1012C00055240895982F82958F70882311F0982FB8
:1012D00084E0292F26952695222311F08E5F922FE8
:1012E000969591118F5F0895089581E0089508956E
:1012F000CF93DF93D82FF9DFC82F882311F08D2FDC
:10130000F6DF8C2FDF91CF9108950895CF93C82FEA
:10131000EBDF8C2FEDDFCF91089580E0F7CF0895BC
:101320000E947623F3CF0895CF930E947623C82F8F
:10133000809134028C1771F0C09334020E94DC2437
:10134000609335027093360280933702909338028F
:101350008C2FDCDFCF9108959C01CB01442319F041
:10136000809141020895A90163E0569547956A95D9
:10137000E1F7840F951F2770332741E050E0BA0151
:1013800002C0660F771F2A95E2F7FC019081962331
:1013900081E0911101C080E008959C01FC01E7709B
:1013A000FF2781E090E001C0880FEA95EAF793E01B
:1013B000369527959A95E1F7FB01E20FF31F2081FF
:1013C000442319F0282B2083089580952823FBCFF0
:1013D0000F931F93CF93DF938C01DC0114968C91B4
:1013E0001497813061F511968C911197883038F5FA
:1013F000CC91C63020F5D0E0B6E08B9FC00DD11D5A
:101400001124F801458169E372E0CE01A5DF40E0D7
:10141000882389F0CE01880F991FFC01E355FF4F07
:10142000E491D8011196EC931197FC01E455FF4F1C
:10143000E491EC9341E069E372E0CE01AEDFDF912D
:10144000CF911F910F910895ADE0B0E0EAE2FAE08C
:101450000C944C2F488759876A877B87182F8C8775
:101460009D87911103D7112319F0CE010896B0DFA3
:101470001F8286E0FE013896DE01119601900D92E2
:101480008A95E1F78D8181110CC029813A814B81C8
:101490005C816D817E818F8121D62D96E3E00C9455
:1014A000682FCE0101968BDE8111EFCFF6CFCF935F
:1014B000FC01C481C13081F480819181B6D39295C1
:1014C0009F70963049F4863F39F0809141028C2715
:1014D00080934102C0934002CF910895CF93C82FCB
:1014E000882389F08CEF8C0F813A78F48C2F0E943E
:1014F000E323882321F08C2F0E94272496D68C2F5B
:101500000E94202492D6CF91089580E28C0F8830DB
:1015100040F4C77081E001C0880FCA95EAF787D60A
:10152000F1CF8BE58C0F833038F42C2F2452330B02
:10153000C9010E949723E7CFC85ACB3120F7EC2F7F
:10154000F0E0EE0FFF1FE059FE4F808191810E9475
:10155000BD23D9CF882329F19CEF980F913A20F42D
:101560000E94272462C6089590E2980F983048F4AC
:10157000877091E001C0990F8A95EAF7892F5DD6AF
:10158000F1CF9BE5980F933028F480E090E00C9425
:1015900097230895885A8B3120F480E090E00C94D2
:1015A000BD2308951F93CF93DF93182FEB0196DF90
:1015B000209731F4812FCEDFDF91CF911F910895D5
:1015C0008FE99FE00197F1F700C000002197F0CF6D
:1015D00060E070E0893311F460E570E0E3CF0895D6
:1015E000882311F024D621C60895882311F025D62A
:1015F0001CC608950F931F93CF93DF938C01D62FB2
:10160000972FF8012581368132953F70E72FE295BB
:10161000EF70703C58F5F0E0EA51F04D0C94302F2B
:10162000C72FCF70703110F0C295C07F222389F090
:10163000CC2349F080E28D0F883010F0D11106C024
:101640008C2FF5D5F2D58D2F49DF10C08C2F00D609
:10165000F9CF8D2F7FDFCC2349F080E28D0F8830CA
:1016600010F0D11108C08C2FE8D5DFD5DF91CF91D4
:101670001F910F9108958C2FF1D5F7CF872F8F7081
:10168000907F903211F08295807FD13051F42223E7
:1016900021F0363058F7A4DFE9CF353038F7A5DF31
:1016A000E5CF222319F03323B1F3CDCF3323B9F3A0
:1016B000D93349F4FFEF27EE83E0F150204080401A
:1016C000E1F700C000008D2F45DFD0CF872F869532
:1016D00086958370882359F0813041F6862F937068
:1016E000211102C080E090E00E94BD23BFCF862F71
:1016F0009370211102C080E090E00E949723B6CF42
:10170000872F837081112FC0211123C0862F8295CE
:1017100086958770880F880F262F2F70082E01C09E
:10172000220F0A94EAF76071662339F06FE070E0E7
:1017300001C0660F8A95EAF7609596959695937025
:10174000862F822B923059F0933059F0913029F046
:101750006AD10E947623DADD89CF60D1FACF68D1D1
:10176000F8CF5AD1F6CF222339F170FFF2CF8D2F67
:10177000829586958770880F880F2D2F2F70082EE1
:1017800001C0220F0A94EAF76D2F6071662339F0C9
:101790006FE070E001C0660F8A95EAF76095969554
:1017A00096959370862F822B923059F0933059F092
:1017B000913029F08ED1CDCF823058F2D8CF84D15C
:1017C000C8CF8CD1C6CF39D1C4CFC72FCF70222379
:1017D00029F08C2F54D18D2F03DFBBCF862F05DF4F
:1017E0008C2F58D1B6CF623F31F158F4603F91F061
:1017F000613FD9F0222379F1332351F18D2F6EDE31
:10180000A8CF633FE9F02111F7CF311131C0892F03
:101810008F71E7CF222339F0353008F09ACF892F26
:101820008F7147D196CF3530F8CF872F8F71222314
:10183000C1F225D18ECF872F8F712223D1F3D1CF43
:10184000222321F0872F8F7112D183CFFAD081CF3D
:10185000892F8F71EECF3323D1F2693349F49FEF93
:10186000E7EEF3E09150E040F040E1F700C0000007
:101870008D2F70DE6ECF633F91F1F8F4613FC9F1B7
:10188000623F79F1603F09F180914002332309F40E
:101890003CC0882341F08091410291E089278093E8
:1018A0004102109240028D2F2111CECE53DE87E0EF
:1018B000F80111928A95E9F7D9CE643FA9F0653F06
:1018C00019F72111D3CE81E007C0222309F4CECE2F
:1018D0008091410291E0892780934102C7CE81E047
:1018E000282720934102C2CE2111C0CE109241027E
:1018F000BDCE222339F080914002882349F3109213
:101900004002B4CE353020F3B1CE882309F4AECEF8
:101910002111ACCE8091410291E089278093410250
:10192000EECF0F931F93CF93DF93EC016881798102
:101930008D8186D18C01D7D06ED0B801CE015ADE10
:10194000DF91CF911F910F910895CF93DF93EC0119
:101950008C81882341F0CE0178DC882321F0CE01F0
:10196000E0DFCE0138DCDF91CF91089580E090E098
:101970000E94972380E090E00E94BD2377D455C455
:1019800008950E942E24F2CF08955FD4FACF0895CF
:10199000282F92959F70963091F060F4925F9F701F
:1019A000923030F481E0203F79F030F4283E30F07E
:1019B00080E008959A5FF3CF243FD1F7089581E046
:1019C000283EE0F3213FF9CF0895FC01848188236C
:1019D00029F08081918129D1DBCF089580E008959D
:1019E000A6E0B0E0E6EFFCE00C944D2F2696E2E096
:1019F0000C94692FA7E0B0E0E0E0FDE00C944D2FDF
:101A00002796E2E00C94692F0895FECF0895FDDF3C
:101A10008093550208950895FACF08959091550244
:101A2000892BF5CF0895909155028923F0CF089521
:101A3000909155028927EBCF0895A3DA8093540241
:101A4000089580E0FACF0895282F909154029111C3
:101A500005C081E0222351F080E00895892F90E0B5
:101A600002C0959587952A95E2F78170089591E0D7
:101A700001C0990F8A95EAF7892FDFCF089521E0F9
:101A800030E001C0220F8A95EAF780915402822B40
:101A9000D4CF089521E030E0A90102C0440F551FC2
:101AA0008A95E2F7CA018095909154028923C5CFA7
:101AB000089521E030E001C0220F8A95EAF7809175
:101AC00054028227BACF089590915402892BB5CF42
:101AD0000895909154028923B0CF089590915402B3
:101AE0008927ABCF089508959B01677091E001C0ED
:101AF000990F6A95EAF763E0369527956A95E1F7BD
:101B0000B901660F771F260F371FFA01E20FF31F87
:101B100040E050E0682F70E08191DF0111979B0158
:101B2000042E02C0369527950A94E2F7217021957C
:101B30002827292328272C934F5F5F4F43305105D7
:101B400059F708959C01A82FA77083E03695279533
:101B50008A95E1F7C901880F991F820F931FFB0136
:101B6000E80FF91F40E050E080E0219130E00A2EBC
:101B700002C0369527950A94E2F721703327042E88
:101B800001C0220F0A94EAF7822B4F5F5F4F433068
:101B9000510559F70895282F862F983060F4263084
:101BA00050F4622F70E026E0929F600D711D1124A9
:101BB00042E452E099CF0895292F983060F486309E
:101BC00050F490E062E472E036E0239F800D911DB6
:101BD0001124B8CF089580E00895A0E0B0E0E3EFCD
:101BE000FDE00C94482F7C01009154028091550235
:101BF000082BC3E0D0E010E0C8010C2E02C0959580
:101C000087950A94E2F780FD09C02197A8F7D12CA7
:101C10008D2DCDB7DEB7E7E00C94642FDC2EB70135
:101C20008C2FDFD5019789F3F3CFCF93DF93D82F94
:101C3000C92FD3DF6D2F7C2FD4D5DF91CF9108959D
:101C40001F93CF93DF93162FD72F90913F029923A5
:101C500039F0862F972FE9DFDF91CF911F910895FB
:101C6000882369F0862F972FB8DFC82F682F812F20
:101C70009D2F91DF612F7D2F8C2FB3D5EDCF862F38
:101C8000972F9ADFC82FF6CFE1E0F0E0DF0102C026
:101C9000AA0FBB1F6A95E2F7BD01DF0102C0AA0FC0
:101CA000BB1F4A95E2F76A2B01C0EE0F2A95EAF7AF
:101CB000962F9823961302C08E2B0895E0958E23BD
:101CC0000895242F462F682F80915402DDDFB5CE72
:101CD00008950F931F93CF93E0915602C7E0809130
:101CE00057028E1304C0CF911F910F9108950E2FAC
:101CF00010E0CE9FF0011124E85AFD4F2081318180
:101D00004281538164817581868174DEF801319648
:101D1000E770E5CF209190023091910240919202BC
:101D20005091930260919402709195028091960275
:101D300061CE089580919602803178F48091950269
:101D4000882359F0E0915602209157023091910278
:101D50004091900257E02E1301C008956E2F70E05D
:101D60005E9FF0011124DF01A85ABD4F14968C919B
:101D70001497882351F111968C911197831325C0E4
:101D80008C91841322C015968C91159781111DC0DA
:101D900012968D919C91A0919202B09193028A1B10
:101DA0009B0B8A3A910588F4809196028F7080612E
:101DB00080939602E25AFD4F80818F70806180830C
:101DC00080E992E0C2DD85CF0895FB013196E7708E
:101DD000C2CFE09156029091570227E0E91302C06A
:101DE00080E00895AE2FB0E02E9FF0011124E85A54
:101DF000FD4F3181361306C03081381303C0358161
:101E0000341304C0FD013196E770E8CF81E00895F6
:101E10008F929F92AF92BF92DF92EF92FF920F93B9
:101E20001F93CF93DF93CDB7DEB72D970FB6F894FE
:101E3000DEBF0FBECDBF8C0186E0F801DE01189633
:101E400001900D928A95E1F7F801E080F580A2807B
:101E5000B380848190E9892E92E0992E909194022A
:101E6000911117C0882309F4ECC0FF2009F42BC19D
:101E7000C801ABDD882309F426C187E0F801D4014D
:101E800001900D928A95E1F7C40111DB53DF42DF27
:101E9000D8C0D09095022091920230919302A50172
:101EA000421B530BDD2009F4CFC04A3A510508F01C
:101EB0009EC0882309F4C5C09091910291808091C1
:101EC0009602803108F065C0991226C09091900268
:101ED0009E1122C0F11057C08F70806180939602CE
:101EE00019DF80E992E031DD80919602F801868366
:101EF000F12C8F2D2D960FB6F894DEBF0FBECDBFFF
:101F0000DF91CF911F910F91FF90EF90DF90BF90E5
:101F1000AF909F908F900895F11035C040E0692DEB
:101F20008E2D57DF40E0692D8E2D53DFF82E811165
:101F3000DFCF8885998579DE292F22952F709034FF
:101F400050F49F70223078F0992391F0F801968137
:101F5000903170F4CECF2A5F2F70223070F0C8011C
:101F6000F4DCFD2CC6CF992319F0882309F4C1CFE6
:101F7000805E883008F4BDCFF2CF803F08F4B9CF3F
:101F8000815F8230F7CF80919602816080939602C4
:101F9000AFCF991207C0909190029E1103C0FF200D
:101FA00009F473C0C80111DD882309F48CC0FF2037
:101FB00009F489C080919602803280F020919002CD
:101FC000309191023A832983BC82AB829091940232
:101FD0009D831E828F83CE010196B7DC87E0F801D6
:101FE000A0E9B2E001900D928A95E1F74FCF909170
:101FF0009602903188F4488559856A857B858C8561
:102000009D85EEDC80E992E0A0DC87E0F40111928E
:102010008A95E9F77FDE6CCF882399F020919102B1
:1020200081812813BFCF809190028E11BBCFF11018
:10203000B9CF9683C80189DC87E0F40111928A95B3
:10204000E9F7FF24F39455CF4A3A510508F03EC012
:102050008823B9F3FF20B9F19091910281819813FF
:1020600029C0809190028E1125C08091960280FD3A
:1020700018C08031B0F08683807F803F39F0868140
:10208000982F907F905F8F70892B8683C8015DDCCD
:1020900087E0F801A0E9B2E001900D928A95E1F79E
:1020A000F6CE87E0F801A0E9B2E001900D928A95A2
:1020B000E1F7C7CFC80189DC811190CF80919602EA
:1020C000816080939602C80140DCBBCF488559856A
:1020D0006A857B858C859D8583DC97CFAEE0B0E0FB
:1020E000E4E7F0E10C944C2F288739874A875B8717
:1020F0006C877D878E87CE0108968ADE8823A9F0BB
:102100006C85662339F0288539854A855B857D8510
:102110008E8570DC17E080915602909157028913EA
:102120003CC02E96E3E00C94682F87E0FE013896C1
:10213000DE01119601900D928A95E1F720915702E8
:10214000409156028C85882329F330E0C90101961D
:102150008770992750E08417950791F097E0929F38
:10216000D001939FB00D1124A85ABD4FFE013196A6
:1021700001900D929A95E1F780935702AADDCACF9C
:1021800004DC109257021092560287E0E0E9F2E078
:10219000DF011D928A95E9F7BDCF189FC001112478
:1021A000885A9D4F35DE882309F4BBCFE091560253
:1021B0001E9FF0011124E85AFD4F20813181428198
:1021C000538164817581868115DC8091560290E08F
:1021D000019687709927809356029DCFCF93DF9306
:1021E000E0910001F09101018091A8029091A70275
:1021F000892B8083C0910001D091010148E050E01B
:1022000067E972E0CE010E947D2F892B59F088E0AA
:10221000FE01A7E9B2E001900D928A95E1F7CE01A7
:102220000E948C23DF91CF910895D8CF089590918B
:10223000A802982B9093A8020895982F90958091CA
:10224000A80289238093A80208951092A8020895F5
:102250009091A702982B9093A7020895982F90959C
:102260008091A70289238093A70208951092A70264
:1022700008956FEF7FEF80E090E00C94D02F0895E9
:1022800080E090E00E94A22F863E9E4F19F40C94AD
:10229000C921089580E0089582E090E00C949A2F7F
:1022A000089583E090E00C949A2F0895682F83E0BE
:1022B00090E00C94B62F089584E090E00C94A22F47
:1022C0000895BC0184E090E00C94D02F0895AB01F8
:1022D000BC018FE090E00C94C82F0895AB01BC01C5
:1022E00083E190E00C94C82F089560E070E0CB018A
:1022F000F5CF089560E070E0CB01E9DFF6CF0895F7
:10230000A8E0B0E0E6E8F1E10C944D2F66EE7EEF38
:1023100080E090E00E94D02F60E082E090E00E9498
:10232000B62F81E08093550261E083E090E00E9447
:10233000B62F60E074E184E090E00E94D02F60E06E
:1023400086E090E00E94B62F6FEF87E090E00E9459
:10235000B62F40E050E0BA0188E090E00E94C82F1C
:1023600060E084E290E00E94B62F60E087E190E0B8
:102370000E94B62F60E08CE090E00E94B62F60E0F3
:102380008DE090E00E94B62F19821A821B821C8277
:102390001D821E821F82188648E050E068E170E0CE
:1023A000CE0101960E94A72F40E050E0BA0180E2E2
:1023B00090E00E94C82F80E00E94E2210E9420222B
:1023C00099DF2896E2E00C94692F9ACF0895A6E051
:1023D000B0E0EDEEF1E10C944B2F0E94D0248C0183
:1023E0008091A9029091AA028017910771F0198239
:1023F0001A820E94D024BC0149815A8180E090E079
:1024000023D81093AA020093A9022696E4E00C9424
:10241000672F12D36093BB027093BC028093BD02FE
:102420009093BE026093B7027093B8028093B90292
:102430009093BA02089500D36093BB027093BC02DC
:102440008093BD029093BE026093B3027093B40276
:102450008093B5029093B602089508950895FDCF34
:1024600008950C945907089581E008958EE495E14C
:1024700082D7F4DFF4CF0895EBC40895089508954A
:10248000FDDFFDCF089520D30C94850908950E94A7
:10249000C7249DD20E942B22E0D40E94541D2BD42D
:1024A000F2DF0E94BA1E80E0D0D7E4D4DACF0895DC
:1024B000A6E0B0E0EEE5F2E10C94442FD5DF811107
:1024C0000EC085DFC5D40E94E51D811163C00E9446
:1024D000F51C0E9494092696EBE00C94602F2CD4F6
:1024E0008BEAA82E82E0B82E750110E0F701019169
:1024F0007F01812F04D31F5F183009F448C00817EB
:10250000A9F38091BF0281FD00D3B6DFC82E00E0A1
:1025100099249394802FF3D2182FF50191915F01A4
:10252000891739F1D82ED926F12CEE24E3948D2D7C
:102530008E218823B1F0CC20A1F0F9820A830E9479
:10254000D0249C838B839D8291E0812F8E218111E9
:1025500001C090E049815A816B817C818D810E940C
:10256000240AF394EE0CF6E0FF12E1CFF501319767
:1025700010830F5F083071F64CDF6AD40E94E51DAE
:10258000811108C00E94F51C0E94C41BA2CF081331
:10259000B8CF97CF50DFF6CF1F93CF93DF9324D1DF
:1025A000EC01811522E5920708F050C0811540E545
:1025B000940708F0E0C0803E9105F8F48D3C910549
:1025C00008F0B4C0883A910580F4853A910508F086
:1025D0009FC08130910521F00497813A910550F414
:1025E000CE01DF91CF911F910895885A91094B97A1
:1025F00008F491C0C0E0D0E0F3CF811550E4950716
:10260000E8F4C11580E2D80708F0CDC0C83ED10576
:1026100038F3CE019A9581159F4160F78D2F88D1AF
:10262000182FCE019927E0D0212F30E0322F22271A
:10263000E901CC27DF71C82BD92BD2CF9927D4D071
:10264000CC27DF70C82BD92BD06ACACF803842E59F
:102650009407C8F5803652E5950708F070C0C0347D
:1026600082E5D807B0F08C2F86958695877020E29A
:10267000829FC0011124C37021E030E0A90102C093
:10268000440F551FCA95E2F7EA01C82BD92BDC6825
:10269000A7CFC03252E5D50708F04AC08C2F8695E7
:1026A000869520E2829FC0011124C37021E030E0B2
:1026B000A90102C0440F551FCA95E2F7EA01C82BD1
:1026C000D92BDD688DCF803E52E59507A8F4C03C3C
:1026D00082E5D80708F048C0CE01805A924580971D
:1026E00008F088CF8C2F8F7123D1C82FD0E0DC2F3A
:1026F000CC27CC27DF7174CF96558F3F910511F011
:1027000008F078CFCE0199276FD0EC01D06668CF62
:10271000A497D06465CFC85AD0E0CC0FDD1FCA554E
:10272000DE4F0990D881C02DD4645ACFD06558CFE0
:10273000CF71D0E0DC2FCC27C16FD06A51CF869506
:102740008695877020E2829FC0011124C37021E02A
:1027500030E0A90102C0440F551FCA95E2F7EA0113
:10276000C82BD92BDA683CCFDC2FCC27CC27DF71E4
:10277000C06FD06A35CF8F71DBD065E0D695C79535
:102780006A95E1F7CF70D0E0DC2FCC27282F30E01E
:1027900084FF05C054E0220F331F5A95E1F7C22B86
:1027A000D32BD0691DCF8D2F8F71C2D0182FCE01A2
:1027B00099271AD0212F30E0322F222722273F716C
:1027C000282B392BE901D0620BCF462F672F7830A9
:1027D00028F4463018F40C94821F089580E090E0AD
:1027E0000895F3DFD9CE0895803E9105D1F1C8F464
:1027F0008133910509F47FC048F48932910509F4C9
:102800006FC08A32910509F47DC00895893391051E
:10281000E1F082389105C9F08533910509F45BC078
:102820000895843E9105D1F148F4823E910531F13D
:10283000833E910541F181EE90E00895863E910539
:10284000C1F1873E9105E1F1089520917303237052
:10285000211165C02091740323FF14C089E290E028
:1028600008952091730320FD43C03091740330FF1D
:1028700009C024FF4EC080E090E0089520917303CA
:1028800022FDF7CF08952091730322FD45C03091BA
:10289000740330FD44C024FFF5CFEDCF20917403C5
:1028A00021FFF0CF8091730384FDE5CF87EE90E0A8
:1028B00008952091730323FFE5CF24FDDCCFF6CFED
:1028C0002091730323FD2EC03091740331FFE3CFB9
:1028D00084EE90E008952091730325FFD3CFBECFFF
:1028E0002091730325FD21C02091740323FFCACFDB
:1028F00089E390E008952091730326FFC3CF8AE215
:1029000090E008952091730326FFBCCF81E390E00F
:10291000089583EE90E0089582EE90E0089580EEB1
:1029200090E0089586EE90E0089585E390E0AACFC8
:102930009091730392FF10C041E0282F247124303E
:1029400009F040E031E0282F2871283009F030E00C
:10295000431711F02CE0822793FF10C041E0282F8D
:102960002471243109F040E031E0282F287128310A
:1029700009F030E0431711F02CE082273091740306
:1029800030FF10C051E0282F2171213009F050E0B4
:1029900041E0282F2871283009F040E0541711F049
:1029A00029E0822731FF10C041E0282F2171213119
:1029B00009F040E031E0282F2871283109F030E09B
:1029C000431711F029E0822794FD877E0895109225
:1029D0006F031092700310927103109272030895A6
:1029E000CF92DF92EF92FF92CF93DF9300D000D08F
:1029F000CDB7DEB76B017C012BD2811112C00E94D2
:102A0000DC2469837A838B839C83C61AD70AE80AFD
:102A1000F90AC0926F03D0927003E0927103F092B2
:102A200072030F900F900F900F90DF91CF91FF9056
:102A3000EF90DF90CF900895A4E0B0E0E2E2F5E1FE
:102A40000C944D2F05D2882371F00E94DC246983F9
:102A50007A838B839C8369817A818B819C81249684
:102A6000E2E00C94692F0E94DC2469837A838B83D3
:102A70009C8380916F0390917003A0917103B0913A
:102A8000720329813A814B815C81280F391F4A1FCB
:102A90005B1F29833A834B835C83DDCF80E00895FD
:102AA000E8CB089549D18FE39CE90197F1F700C085
:102AB000000042D180E023D080FF03C0F1DF0C94FE
:102AC0004C250895EFCF0895DBDB811101C07DDC3B
:102AD000E3DB8093BF02F0DB909374038093730376
:102AE000F1DFDFDB0E940C0D809154020C94C107D2
:102AF00008950895FECF08950C945A070895E82F7D
:102B0000F0E0E258FC4F80810895089580EA8A95AC
:102B1000F1F7089500C00895F9CF08950895FECF04
:102B20000895EF92FF921F93CF93DF9300D000D0D0
:102B3000CDB7DEB78DD1182F60918603882309F4B5
:102B400045C01A8219821C821B82862F90E09E014A
:102B50002F5F3F4F7901B90182589C4F97D188234D
:102B6000E1F08091750390E044E050E0B7018258B5
:102B70009C4F0E947D2F21E02093C002892BC1F43D
:102B800010E0BADF812F0F900F900F900F90DF9120
:102B9000CF911F91FF90EF9008958091C0028823FC
:102BA00079F384E0F70111928A95E9F71092C00257
:102BB000E0917503F0E0E258FC4F89819A81AB8186
:102BC000BC8180839183A283B383DBCF70E06258A2
:102BD0007C4F8091750390E082589C4FDED19FDF3F
:102BE000D1CFF894E82FE295EF70F0E041A18F701B
:102BF00021E030E0B90102C0660F771F8A95E2F745
:102C0000CB01962F9095942391A392A1892B82A317
:102C100078940895CF93DF9386E6E3DF87E9E1DFD9
:102C200086ECDFDF84E3DDDFCCEDD1E089918F3FFF
:102C300009F0D7DF81E0C23ED807C1F7DF91CF911D
:102C40000895A0E0B0E0E7E2F6E10C94472FEC0134
:102C5000D62E062F10E0C8018E519E4F7C01FC013C
:102C600080818F3F09F442C0F894E82FE295EF701D
:102C7000F0E091A18F7021E030E001C0220F8A9531
:102C8000EAF7892F822B81A382A12095282322A3F2
:102C9000789440DFECEDF1E091E0C12C81918F3F21
:102CA00081F0A82FA295AF70A05EB0E02C9130E02B
:102CB0008F7002C0359527958A95E2F72170892F8C
:102CC000211180E0C82A990F81E0E23EF80731F730
:102CD000F70180818F3F09F084DF61E0C11001C0FE
:102CE00060E08D2D19DFC00FD11FC882CDB7DEB7D0
:102CF000E8E00C94632F809102018091020191E041
:102D00008927880F880F8093860394E0981B9093FF
:102D1000750380DF88E0EEE7F3E0DF01982F1D9276
:102D20009A95E9F7E6E7F3E0DF011D928A95E9F766
:102D300084E040D0DFCE0895A8E0B0E0E2EAF6E11A
:102D40000C944A2F1A821982FE01339686E0DF0125
:102D50001D928A95E9F7F12C8E010F5F1F4F6F2DA1
:102D6000C8016FDFF394B4E0FB12F9CF48E050E004
:102D7000B80186E793E00E947D2F21E0892B89F43A
:102D800020E06091860370E062587C4F44E086E763
:102D900093E011D0182FC5DE812B2896E5E00C9426
:102DA000662F88E0F801A6E7B3E001900D928A95BE
:102DB000E1F7E7CF0895A0E0B0E0E1EEF6E10C9492
:102DC000472FD82EE92EF62ED72F042FC22F2223DD
:102DD00079F081E08093C3020E94D0249093C202D4
:102DE0008093C10280E0CDB7DEB7E8E00C94632F9A
:102DF000C090C302CC20B1F38091C1029091C20275
:102E00000E94F924059770F310E0A8016D2D7E2D26
:102E10008F2D9D2F0E947D2F892B41F0A8016D2DB4
:102E20007E2D8F2D9D2F0E948A2FCC2D1092C302B4
:102E30008C2FD9CFCF930E94F02EC82F811102C0C2
:102E40000E94EC2E8C2FCF9108958091C702089597
:102E50008091C6020895FCCF0895ECDF8093C602EE
:102E6000FADF8093C702F1DF80930201F1DF811165
:102E700042C00895EDDF811101C040C0089581E096
:102E80009091C8029A3008F080E008950F931F9344
:102E9000CF93DF93EC01162F072F8091C8028A3061
:102EA00088F4612F702FCE0176D0811121C08091DE
:102EB000C8028F3FB1F40E94D0249093C502809342
:102EC000C40209C08091C4029091C5020E94F924F5
:102ED000843F914030F780E0DF91CF911F910F91B7
:102EE00008958F5F8093C8028A3028F781E0F4CF7D
:102EF0001092C802FBCF0C94C32608950C94C626EA
:102F00000895A0E0B0E0E7E8F7E10C94472FFA015C
:102F100069017801C82F880FDD0B3097B1F0DE0111
:102F200093E0AA0FBB1F9A95E1F7AD5FBE4F1196D4
:102F30008D919C91129787539D4F4C9150E0E417CF
:102F4000F50708F4AF010E948A2FCE010E94A9273D
:102F5000182F8823D1F0E114F104B9F083E0CC0FED
:102F6000DD1F8A95E1F7FE01ED5FFE4F438150E0E2
:102F7000E416F50608F4A701CD5FDE4F6C817D8174
:102F800067537D4FC6010E948A2F812FCDB7DEB7D0
:102F9000E8E00C94632F67C108958EC10895A8E0FE
:102FA000B0E0E5EDF7E10C944B2F8091E5029091B4
:102FB000E602A091E702B091E802BC01CD010E94B7
:102FC000082511E0643671058105910510F134DDA5
:102FD000DC01CB010296A11DB11D89839A83AB83CD
:102FE000BC8300E010E020E030E044E050E0BE01AF
:102FF0006F5F7F4F84E085DF182F882351F00E9498
:10300000DC246093E5027093E6028093E7029093DC
:10301000E802812F2896E4E00C94672FA5E0B0E049
:10302000E4E1F8E10C94422F762E6A01490158013F
:1030300001E010E09E012F5F3F4F40E050E060E074
:1030400070E05FDF182F8823A9F1D6018D919D9143
:103050000D90BC91A02DBC01CD010E9408256436C5
:1030600071058105910500F18701940140E050E070
:1030700060E070E0872D45DF182FB701C5017BD6D2
:103080009981981731F010E0812F2596EDE00C948E
:103090005E2F11701123C1F30E94DC24F6016083BE
:1030A000718382839383F0CFB701C50164D6998180
:1030B0008913DACFA701B501C4010E948A2FE4CF9A
:1030C000A1E0B0E0E6E6F8E10C94492F0091E601BA
:1030D0001091E7010A5F1F4FEE24E394F12C9E014B
:1030E0002F5F3F4F41EE52E063E082E097DF182F01
:1030F000882319F0CE010196FBD5812F2196E6E0B9
:103100000C94652FA4E0B0E0E8E8F8E10C94472FB8
:103110006B010091E6011091E7010F5F1F4F84E002
:10312000E82EF12C9E012F5F3F4F4DED52E061E004
:1031300080E074DF882361F049815A816B817C8152
:103140004093D9025093DA026093DB027093DC0261
:103150004091D9025091DA026091DB027091DC0259
:10316000F60140835183628373832496E8E00C94D4
:10317000632FA5E0B0E0EFEBF8E10C944B2F30D4D7
:10318000182F8983E091E601F091E7010385809192
:10319000E9029091EA02A091EB02B091EC02BC012D
:1031A000CD010E940825643671058105910530F432
:1031B000812F90E010E080179107B9F000E010E057
:1031C00020E030E041E050E0BE016F5F7F4F85E0DE
:1031D00098DE882359F00E94DC246093E902709302
:1031E000EA028093EB029093EC0281E02596E4E002
:1031F0000C94672FA0E0B0E0E0E0F9E10C94452FDB
:10320000F82EE92EB62EA72E8A0139DECC24C394DF
:10321000D12C882319F08AE0C82ED12CC1E0D0E04F
:103220006B2D7A2D8F2D9E2DF8010995811116C0D9
:103230002196CC16DD0694F0CC9FC001CD9F900D59
:10324000900D112420E030E045E34A95F1F70000AD
:103250002F5F3F4F28173907B9F7E2CFCDB7DEB759
:10326000EAE00C94612F0F931F93CF93DF93D82F35
:10327000C92F8B0142E858E1BDDF811106C080E013
:10328000DF91CF911F910F91089540E658E1B80169
:103290008D2F9C2FAFDF882391F34FEC57E1B801BE
:1032A0008D2F9C2FA7DF882351F349EB58E1B801FC
:1032B0008D2F9C2F9FDFE4CFA1E0B0E0E2E6F9E1A3
:1032C0000C94472FFB010091E6011091E701C80122
:1032D000019624E0DC0101900D922A95E1F764E06B
:1032E00070E049D5F8018083CE010196F6D489813A
:1032F000F801868361E070E0CE0101963CD5F801CB
:1033000085836781708581859285C090D502D09034
:10331000D602E090D702F090D8026C157D058E059C
:103320009F0549F06093D5027093D6028093D7022F
:103330009093D80255DBF8018385882329F024D2A5
:103340002196E8E00C94632F31D3FACF0E947129C3
:103350009ED80C947B2908950E947F29A9D80C94AB
:10336000952908950E9469240E9458297FD8EEDF8C
:10337000F3DF86D8FDCF9093190280931802089549
:10338000AB0124E630E0BC0188E70E9418269C01CE
:1033900081E0232B09F080E00895A0E0B0E0E3EDA8
:1033A000F9E10C94472F6C017B0164E670E088E73B
:1033B0000E948125EC018601EC0CFD1C0E151F05F9
:1033C00059F40E94652681E0CD2B09F080E0CDB74D
:1033D000DEB7E8E00C94632FD7FDF3CFF8018491BA
:1033E00064E670E00E94EA25EC010F5F1F4FE6CF14
:1033F0000F931F93AC019B0104E610E060E488E7A3
:103400000E943D269C0181E0232B09F080E01F9162
:103410000F9108950C947B2508950895FECF08958B
:10342000E7E8F3E080E094E0DF019C011D92215089
:103430003040E1F7F0938E07E0938D078FEF9FEF19
:1034400090933903809338030895A5E0B0E0EBE250
:10345000FAE10C944D2F0E945707E0DF90E480FFC3
:1034600090E88093340390933303D4DF6BE070E0F3
:103470008EE197E092DF811106C01D828D81259635
:10348000E2E00C94692F8091340365E070E081FDE7
:1034900026C089E197E081DF882379F36DE070E051
:1034A00087E097E07ADF8D83882339F30E94DC245C
:1034B000DC01CB01805A9541AF4FBF4F8093890704
:1034C00090938A07A0938B07B0938C07A9DF81E0C4
:1034D000809337038093360310923503CFCF84E176
:1034E00097E0D9CF2091330336E0839FC0011124A8
:1034F000269F800D911D1124811524E0920714F060
:1035000080E090E089579C4F90938E0780938D07C1
:10351000089520918D0730918E07215833404091B6
:103520003303642F70E0C9010E94092F481B463005
:1035300010F4240F311D211584E0380710F020E02D
:1035400030E029573C4F30938E0720938D07089524
:10355000CF93DF93982FC62F81E09A3019F09D30DA
:1035600029F480E06AD0DF91CF91089520918D07F2
:1035700030918E0786E0F901ADEEB2E001900D9238
:103580008A95E1F7903EB0F086E0F90111928A95B4
:10359000E9F7C1111BC0C0918D07D0918E0746E09D
:1035A00050E0BE018DEE92E00E947D2F892BE1F468
:1035B000B0DFD9CFF6E09F9FB0011124675D784F4F
:1035C00046E050E0C9010E94742FE3CFE0918D07DF
:1035D000F0918E079F012A5F3F4F2E173F07D9F2C8
:1035E000808180958193F9CFC758D340CE0126E0E2
:1035F000969587952A95E1F721E030E0A90102C070
:10360000440F551F8A95E2F7CA0140913803509143
:103610003903842B952B259646E0D695C7954A9578
:10362000E1F702C0220F331FCA95E2F7822B932BDA
:103630009093390380933803BBCFCF93382FE09119
:103640008D07F0918E07E758F34020913303622FE6
:1036500070E0CF010E94092F281B822F332361F0D5
:1036600066E00E94FD2EC82FC15010F4CF9108953E
:1036700060E080E26DDFF8CF9F01280F311D21153A
:10368000344018F080E0E0E0F0E08E0F9F2F911DB5
:1036900089579C4F90938E0780938D07E7CFFF92B9
:1036A0000F931F93CF93DF93EC01F62EFC01019053
:1036B0000020E9F78F0101501109C017D10728F048
:1036C000CDB7DEB7E5E00C94662F6F2D899140DF12
:1036D000F4CFE5DF81E0B1CF08951F93CF93DF935F
:1036E000EC01162FFE018491811104C0DF91CF916E
:1036F0001F910895612F2CDF2196F4CFEEDF81E03A
:103700009CCF0895CF93DF93B82FA92F9B01809171
:103710008D0790918E0787589340AC01460F571F35
:103720004130544020F020E034E0281B390B409118
:10373000380350913903EB2FFA2F280F391FC1E0BE
:10374000D0E08217930738F0509339034093380341
:10375000DF91CF9108956491DC01A957BC4F7C9112
:10376000761779F06C93BC01A6E076956795AA95DB
:10377000E1F7DE0102C0AA0FBB1F6A95E2F74A2BF0
:103780005B2B01963196DDCFA4E0B0E0EAECFBE1E3
:103790000C944D2F80913703811106C08091360320
:1037A0002496E2E00C94692F0E94DC24DC01CB011A
:1037B000805A9541AF4FBF4F8093890790938A07F6
:1037C000A0938B07B0938C07809136038111E6CFCD
:1037D00062E070E085E097E0E0DD8823F9F281E0C7
:1037E00080933603DBCFA4E0B0E0E9EFFBE10C947B
:1037F0003D2F8C838091380390913903892BE1F020
:10380000809137038823C1F080913503811114C062
:10381000BBDF10E01B8244244394512C07E060E49A
:10382000F62E8091380390913903009729F01123E7
:1038300051F0FC81F11107C02496E2E10C94592F5C
:103840002B812F5F2B833B81C32ED12C520102C0D1
:10385000AA0CBB1C3A95E2F7950128233923232BA8
:1038600079F38091340380FD3AC09601369527950F
:10387000922F8B818295880F880F80743FE3380FD9
:1038800080933501209338013093360190933901AC
:1038900067E070E083E391E073DD882369F2C6019D
:1038A00026E0880F991F2A95E1F72091340320FD27
:1038B0001FC060E470E089579C4F9ADD882309F4AB
:1038C000BBCFA094B09480913803909139038A21A2
:1038D0009B2190933903809338031F5FA2CF8B8184
:1038E000880F880F880F37E0380F20E097E0C8CFA7
:1038F000A3EFB2E0EF2D1D92EA95E9F720EF31E05A
:103900003A83298368EE71E0E981FA81A191FA8313
:10391000E983FB012191BF01280F392F311DA90136
:1039200049575C4F1A01EA2FF0E0ED50FD4F20E0BF
:1039300030E0602E621A842C022E01C0880C0A949A
:10394000EAF76101912CD601ED906D01E820462D3A
:103950004919477050E0BE2D042E01C0BB0F0A94D8
:10396000EAF77B2E5195419551094770552701C0C3
:10397000E6944A95EAF7EB2A4081E42AE0829394A0
:1039800048E09412E0CF2F5F3F4F31962830310549
:1039900081F6A8EFB1E0E981FA81AE17BF0709F01F
:1039A000B3CF60E470E083EF92E087CF809136037D
:1039B00090913703911103C091E0892708958823DE
:1039C00061F062E070E083E097E0E7DC811103C022
:1039D0008091360308951092360380913603ECCF20
:1039E00080913603089581E00895A4E0B0E0EBEF04
:1039F000FCE10C944D2F809137038823A1F1809135
:103A0000870790918807F5D7C29750F0C9D7909350
:103A100088078093870760E080E064DD0E94F307F9
:103A200080E0E1DE809136038823E9F0C5D7698321
:103A30007A838B839C838091890790918A07A091D8
:103A40008B07B0918C0729813A814B815C81281BBF
:103A5000390B4A0B5B0BDA01C9018F3F9F4FAF4F08
:103A6000BF4708F4A3DF2496E2E00C94692F8FE8A7
:103A700091E00197F1F700C000000895CF93DF9324
:103A8000D62F0E946908C82F882341F06AE070E0B1
:103A900089EAD11101C08AEA0E94D20A8C2FDF91F3
:103AA000CF910895D5C908950F931F93CF93DF93B6
:103AB0008091020191E0892780933E03292F281BE2
:103AC00020933D038091020190933F038091020176
:103AD00090933C0380910201882309F449C08091AE
:103AE0003B01E82FE295EF70A1E2AE0FB0E04C9100
:103AF0008F7021E030E0B90102C0660F771F8A9510
:103B0000E2F7CB01962F909594239C93EE5DF0E025
:103B10009081892B808380913A01E82FE295EF70A4
:103B2000A1E2AE0FB0E04C918F70B90102C0660FF8
:103B3000771F8A95E2F7CB01962F909594239C935B
:103B4000EE5DF0E09081892B808391DF60913F03EF
:103B50004BE351E0CAE3D1E002E413E0FA018E2F17
:103B6000841B861760F0DF91CF911F910F9108950C
:103B700084EF80933B0185EF80933A01B0CF719140
:103B8000872F82958F70805E90E0DC012C913991B7
:103B9000832F82958F70805E90E0DC018C9190E0A5
:103BA0003F7002C0959587953A95E2F78170880F2E
:103BB00030E07F7002C0359527957A95E2F7217045
:103BC000822BD8018D938D01CACFCF92DF92FF92C5
:103BD0000F931F93CF93DF9310E000E082E0C82E95
:103BE000D12C80913F03181748F0802FDF91CF919F
:103BF0001F910F91FF90DF90CF900895C12FD0E0DB
:103C0000FE01E55CFE4F6081E62FE295EF70E05E1D
:103C1000F0E04081FE01E65CFE4F5081E52FE29529
:103C2000EF70E05EF0E0808190E05F7002C09595FB
:103C300087955A95E2F78170880F50E06F7002C047
:103C4000559547956A95E2F74170842BDE01AE5B8E
:103C5000BC4FEC919E2F9370981709F43CC0EE0F67
:103C6000EE0FE82BEC93F0903E03F10EEF70F0E0D6
:103C7000E850FE4FC05CDC4F80819881890F8883BB
:103C800020E0823074F0EF2DF0E0E65CFC4F8081A4
:103C90008F5F808307DF882319F060E08F2DEEDED1
:103CA00021E088818F3F74F4EF2DF0E0E65CFC4F5B
:103CB000808181508083F6DE882319F061E08F2DAA
:103CC000DDDE21E08881082E000C990BB6010E94F0
:103CD0001D2F8883022B1F5F84CF40913F0350E04C
:103CE00060913E0370E0665C7C4F0C948A2F0895CF
:103CF000A0E0B0E0EEE7FEE10C94472F6C01D0E0CD
:103D000080E090913C03D91740F081110E941B1272
:103D1000CDB7DEB7E8E00C94632FF0903D03FD0EC5
:103D20000F2D10E0065C1C4FF601ED0FF11DC08158
:103D3000F8019081C91BEC2E1E1444F09C2FC7FD86
:103D400090E0C91BC1110CC0DF5FDBCFEA94F80122
:103D500080818F5F808360E08F2D90DE81E0ECCFEB
:103D6000CF5FF80180818150808361E08F2D86DEF6
:103D700081E0E8CF0895FC01680F791F8FEF91E390
:103D8000E617F70709F408952191822728E030E02B
:103D900087FF08C0880F8927215031092115310577
:103DA000B9F7EECF880FF8CF84E0089550E0440FC4
:103DB000551F9CE0699F400D511D112490E6899F7D
:103DC000400D511D1124CA01899608950F931F9328
:103DD000CF93DF938430C0F46830B0F44630A0F461
:103DE000E5DF8C010E949A2FC82FD0E0DC2FCC2772
:103DF000C80101960E949A2F9E01282BC901DF91CC
:103E0000CF911F910F91089580E090E0F8CF0F932C
:103E10001F93CF93DF93122F032F843070F46830F9
:103E200060F4463050F4C2DFEC01602F0E94B62FE0
:103E3000612FCE0101960E94B62FDF91CF911F9185
:103E40000F9108951F93CF93DF93D0E0C0E010C08F
:103E5000412F6C2F8D2F0E9484089C01412F6C2FC5
:103E60008D2FD5DF1F5F163099F7CF5FC83011F067
:103E700010E0EECFDF5FD43049F7DF91CF911F9193
:103E80000895EF92FF920F931F93CF93DF938C01CE
:103E9000EA017A01E60EF71ECE15DF0529F4CDB74B
:103EA000DEB7E6E00C94652F003881E0180740F497
:103EB000C80189960E949A2F89930F5F1F4FECCFFC
:103EC00080E0FACFEF92FF920F931F93CF93DF938F
:103ED0008C01EA017A01E60EF71ECE15DF0529F402
:103EE000CDB7DEB7E6E00C94652F003881E0180707
:103EF00028F46881C80189960E94B62F21960F5F29
:103F00001F4FEBCF843030F4683020F4463010F48B
:103F10005DCF089580E090E0089580E1089587E501
:103F200092E00895EF92FF920F931F93CF93DF9348
:103F30008C01EA017A01E60EF71ECE15DF0529F4A1
:103F4000CDB7DEB7E6E00C94652F073582E01807A1
:103F500048F4C80187559E4F0E949A2F89930F5F9E
:103F60001F4FEBCF80E0FACFEF92FF920F931F939A
:103F7000CF93DF938C01EA017A01E60EF71ECE158E
:103F8000DF0529F4CDB7DEB7E6E00C94652F0735E1
:103F900082E0180730F46881C80187559E4F0E945F
:103FA000B62F21960F5F1F4FEACFCF93DF93C9EA59
:103FB000D1E060E0CE010E94B62F2196C11584E0C9
:103FC000D807B9F7DF91CF910895A8E0B0E0EBEE04
:103FD000FFE10C94472FF82E2FE0281708F46EC04D
:103FE0008FEF93E00E949A2F811168C009EA11E0D7
:103FF000F11037C01A821982FE01339686E0DF0184
:104000001D928A95E9F76801BFEFCB1ADB0AC80158
:104010000E949A2F89831A82882309F44FC0813025
:10402000D1F4780122E0E20EF11CC6010E949A2F21
:104030008A83882309F442C09FEF980F9330F0F4ED
:10404000680183E0C80ED11CC7010E949A2F8B83A0
:104050008823A1F11C8260E0CE01019699D08601EF
:10406000D2CF011584E0180749F1C8010E949A2FA8
:104070000F5F1F4F8111F5CFFA94BACF8430B9F496
:1040800002E010E0C701AFEFEA1AFA0A0E949A2F85
:10409000E1E0F0E0EC0FFD1FE00FF11F80838823CB
:1040A00069F08C3731F4FE01E00FF11F12826701D5
:1040B000D2CF0F5F1F4F0730110521F72896E8E098
:1040C0000C94632FFF920F931F93CF93DF93E82FEE
:1040D000F0E0E759F34FF490282F26952695269582
:1040E00030E0F901E75FF24F94918770F901E750F2
:1040F000F34F049110E0082E02C0159507950A941D
:10410000E2F701701127F901E751F34FC491D0E0B4
:10411000082E02C0D595C7950A94E2F7C170DD2735
:10412000E92FF0E002C0F595E7958A95E2F7E0FD0A
:1041300010C001151105C1F48F2D0E94E80ACD2B86
:1041400019F08CE20E94E80ACDB7DEB7E5E00C94E6
:10415000662F81EE0E946E0A0115110579F48F2DEC
:104160000E94E80A81EE07C086EE0E946E0A8F2D3B
:104170000E94E80A86EE0E94AA0AE1CF86EE0E941B
:104180006E0A8F2D0E94E80A86EE0E94AA0AEACFE4
:10419000EF92FF921F93CF93DF93EC01162F88814C
:1041A000882309F455C0813009F050C089818130DD
:1041B000A1F47E0122E0E20EF11C8A810E94E80A4D
:1041C000E7012196812F882351F3EFE9FFE0319732
:1041D000F1F700C000008150F6CF823041F47E013B
:1041E00082E0E80EF11C8A810E946E0AE9CF8330DA
:1041F00041F47E01E2E0EE0EF11C8A810E94AA0ADF
:10420000DFCF843011F02196DCCF2A81229680E026
:1042100090E06AE0AE014F5F5F4F2053330B2A30CE
:10422000310548F0019768F2EFE9FFE03197F1F7C7
:1042300000C00000F7CF689FF001699FF00D1124C6
:10424000C9018E0F9F1F2981EA01E4CF3BDFB9CF5F
:10425000DF91CF911F91FF90EF900895FF920F9300
:104260001F93CF93DF938C01F62EF801849188235E
:1042700009F456C0813009F050C0E8012196FE01D2
:104280008491813099F42196FE0184910E94E80A7C
:104290008E010F5F1F4F8F2D882339F3EFE9FFE069
:1042A0003197F1F700C000008150F6CF823039F429
:1042B000E8012296FE0184910E946E0AE9CF8330C4
:1042C00039F4E8012296FE0184910E94AA0AE0CF07
:1042D0008430F1F6E8012296FE01849120E030E07E
:1042E0004AE0FE0131968053990B8A30910550F0D7
:1042F0002150310968F28FE99FE00197F1F700C082
:104300000000F6CF429FB001439F700D11249C0125
:10431000260F371F8491EF01E4CFD4DEE801B8CF38
:10432000CDB7DEB7E5E00C94662FCF93DF939C0109
:10433000FB0127378CE7380739F028373C47C9F0AD
:1043400081E0DF91CF9108958581882371F018D0A5
:104350000E943F0D1BD0D82F16D0C82F11D04D2F43
:104360006C2F0E94610E80E0ECCF0AD00E944A0DB3
:10437000F1CF8581882311F006D0EACF04D0F6CFA3
:1043800080913E01089580913D01089580913C0106
:10439000089585E290E00E949A2F843289F486E2A3
:1043A00090E00E949A2F863059F487E290E00E94B4
:1043B0009A2F91E0893109F090E0892F817008955A
:1043C00080E0FCCF882381F064E285E290E00E94E7
:1043D000B62F66E086E290E00E94B62F69E187E2A0
:1043E00090E00C94B62F08956FEF85E290E00E9464
:1043F000B62F6FEF86E290E00E94B62F6FEFEFCFFF
:104400000895A4E0B0E0E7E0F2E20C944D2F88E2DA
:1044100090E00E949A2F282F30E040E050E0CA013F
:10442000B9012496E2E00C94692F0895CF93C62F2A
:10443000FCDF6C2F88E290E00E94B62FCF910895A8
:1044400080E0C0DF60E070E0CB01F0DFFBDCADDDE1
:1044500081E0B8CF0895D4DFD4DFE7DF9ADF8111A0
:1044600001C0EECF089508959C01FB01858188234A
:1044700049F0A90157574038510528F4822FA5DD8E
:1044800080E0089581E008952FEFFC0120830895D6
:10449000FBCF089580E00895CF92DF92FF920F93B3
:1044A0001F93CF93DF93CDB7DEB72E970FB6F89457
:1044B000DEBF0FBECDBF8D839E83F62E8D819E8184
:1044C000E9DF811114C0AD81BE81EC91E150E3318F
:1044D00038F5F0E0EE50F04D0C94302FED81FE8178
:1044E00011828CE082836F2D8D819E81E5D52E9681
:1044F0000FB6F894DEBF0FBECDBFDF91CF911F91F5
:104500000F91FF90DF90CF900895AD81BE811196FD
:104510008C91833089F148F4813081F08230E1F070
:104520008FEFAD81BE818C93DECF8430C9F7ED81F2
:10453000FE811282138214821582D5CF3DD20E9451
:10454000362F6F83788789879A87ED81FE81628312
:10455000738384839583C7CF54DF0E94362F6B8784
:104560007C878D879E87AD81BE8112966D937D93EA
:104570008D939C931597B7CFED81FE81028110E05A
:104580006F01F3E0CF0ED11C083011050CF0ABCF5A
:10459000802F0E947F15D6018D936D010F5F1F4FF5
:1045A000F3CFED81FE818181823041F0853009F0C9
:1045B000B7CFED81FE81828156DF95CFAD81BE817F
:1045C00012968D919D910D90BC91A02D89839A8317
:1045D000AB83BC83BC01CD010E94362F27DF83CF84
:1045E000AD81BE8113964C91139712966C911297E0
:1045F00011968C91EBDB982789279827ED81FE8116
:104600009583848370CFAD81BE8114962D913C91AA
:10461000159732272327322713964C91139712961A
:104620006C91129711968C91F2DB5DCF0BDC5BCF16
:104630006F2D8D819E812CDF56CF6FDCED81FE8149
:10464000818351CF6CDC982789279827AD81BE8163
:1046500012969C938E93119746CFED81FE816381D4
:1046600070E081819281AF014C5F5F4F982789276D
:10467000982758DC38CFAD81BE8113966C91139783
:1046800070E011968D919C911297AD014C5F5F4F38
:1046900098278927982768DC26CF87DC24CF84DBFE
:1046A000CDCFAD81BE8113966C91139770E01196BA
:1046B0008D919C911297AD014C5F5F4F9827892790
:1046C0009827DFDB10CFED81FE81638170E081816F
:1046D0009281AF014C5F5F4F982789279827F2DBC3
:1046E00002CF90934A038093490308950E942817AC
:1046F000811103C0809144030895E0914903F09132
:104700004A03309729F00190F081E02D0995089532
:1047100080E00895EBCF0895E0914903F0914A03BA
:10472000309721F00280F381E02D09950895A3E0F0
:10473000B0E0EDE9F3E20C944D2F9C01809147032A
:104740009091480382179307A1F030934803209378
:104750004703E0914903F0914A03309751F083E019
:1047600089833B832A830084F185E02DCE01019665
:1047700009952396E2E00C94692FA3E0B0E0E3EC06
:10478000F3E20C944D2F9C018091450390914603D8
:1047900082179307A1F03093460320934503E091DD
:1047A0004903F0914A03309751F084E089833B83B9
:1047B0002A830084F185E02DCE0101960995239688
:1047C000E2E00C94692F882371F020910001309170
:1047D0000101F9013296285F3F4F9191981729F016
:1047E000E217F307D1F780E0089581E008959C0176
:1047F000FC0132968FEF90E04191461751F08F3FC8
:1048000019F4411101C0892F9F5F9630A9F78F3F9E
:1048100009F40895280F311D87FD3A95F901628347
:1048200008959C01FC013296285F3F4F81918613C9
:1048300003C0DF0111971C92E217F307B9F708953F
:10484000682F8091000190910101D1CF0895682FC8
:104850008091000190910101E4CF0895E091000161
:10486000F0910101329686E0DF011D928A95E9F709
:1048700008950895FECF08958F5F80934B03FACF7C
:10488000089583E080934B03F5CF0895F5CF089505
:1048900081E080934B03EECF0895FACF08950895F9
:1048A0000895FECF089508950895F9CF0895CF9300
:1048B000FADF0E949C16F8DFC0E08C2F0E947F1563
:1048C000811105C0CF5FC830C1F7CF91089581E055
:1048D000FCCF85B7806885BF85B7806885BF0895A0
:1048E0001F921FB61F9211248F939F93AF93BF9374
:1048F00080914C03811113C080918F079091900794
:10490000A0919107B09192074196A11DB11D80938E
:104910008F0790939007A0939107B0939207BF9150
:10492000AF919F918F911F901FBE1F9018958091FE
:104930009707843031F10E94580910924C0388E1A6
:1049400090E020E40FB6F894A895809360000FBE25
:104950002093600083B7817F846083BF83B78160C9
:1049600083BF7894889583B78E7F83BF0FB6F89402
:10497000A89580916000886180936000109260002B
:104980000FBE08950E94C50C0C945E09089582E044
:1049900084BD93E095BD9AEF97BD80936E00089516
:1049A0002FB7F89480918F0790919007A09191076D
:1049B000B09192072FBF0895A4E0B0E0E2EEF4E2D8
:1049C0000C944D2F8FB7F89420918F07309190075A
:1049D000409191075091920729833A834B835C83DE
:1049E0008FBF69817A818B819C812496E2E00C944F
:1049F000692F9C014FB7F89480918F079091900791
:104A0000A0919107B09192074FBF821B930B08951D
:104A1000A4E0B0E0EEE0F5E20C944B2F462F572FC8
:104A2000BC012FB7F89480918F0790919007A091C7
:104A30009107B09192072FBF8C019D01041B150BAC
:104A4000260B370BC901B8012496E4E00C94672FBC
:104A500078941F921FB61F9211248F939F93AF9348
:104A6000BF9380918F0790919007A0919107B0918B
:104A700092070196A11DB11D80938F079093900717
:104A8000A0939107B0939207BF91AF919F918F919F
:104A90001F901FBE1F90189581E08093E00080E278
:104AA0008093D8001092C9008FE19EE40197F1F73E
:104AB00000C0000087E090EBDC018093A00790939A
:104AC000A107A093A207B093A30788E19CE00FB6CB
:104AD000F894A895809360000FBE90936000FFCF7C
:104AE00088E19CE00FB6F894A895809360000FBE13
:104AF00090936000FFCF1092B9008CE08093B800D3
:104B00000895A0E0B0E0E7E8F5E20C94442FB82E59
:104B1000EB0146DF6C01EE24E394F12CC431D105A6
:104B200060F025E0E22EF12CCF3FDC0731F0CE0122
:104B300064E170E00E94092F7B0184EAA82E94E8CA
:104B4000992E1092BC00A092BC002ADF182F092FCA
:104B50008091BC0087FF0CC08091B900887F8830AD
:104B6000E9F08091B900887F8031C1F00FEF07C074
:104B7000812F902F3EDFE816F90650F70EEF1FEF5A
:104B8000CF3FDC07F1F2C60134DFC817D907C8F6FA
:104B9000C801CDB7DEB7EBE00C94602FB092BB003C
:104BA0009092BC00FDDE182F092F8091BC0087FF7A
:104BB0000AC02091B900287F283111F02034B1F6C5
:104BC00000E010E0E5CF812F902F13DFE816F90603
:104BD00060F7D4CF0F931F93CF93DF93EB018093B4
:104BE000BB0084E88093BC00DBDE182F092F809186
:104BF000BC0087FF11C02091B900287F81E090E0C0
:104C0000283211F480E090E0919581959109DF912F
:104C1000CF911F910F910895CF3FDC0741F3812F72
:104C2000902FE7DEC817D90710F78EEF9FEFEFCF71
:104C3000A0E0B0E0EEE1F6E20C94472F6B018A01B0
:104C4000F22EE32E622F732F5CDFAC01E6010C0D18
:104C50001D1DC017D10711F057FF09C084E98093CB
:104C6000BC00CA01CDB7DEB7E8E00C94632F6F2D0E
:104C70007E2D8991AFDFAC01ECCFA0E0B0E0E3E4A2
:104C8000F6E20C94472FC62F6A017901B80139DF8B
:104C90009C0197FD0CC0B8018C2F9CDF9C01E601A4
:104CA000EC0CFD1CCE15DF0511F037FF09C084E9BF
:104CB0008093BC00C901CDB7DEB7E8E00C94632F48
:104CC000B801899187DF9C01EDCF84E98093BC0016
:104CD00008958EE14A9B03C081508111FBCF4A9B0E
:104CE000FECF08955A9880E28A95F1F75A9A08956E
:104CF000FC013BE03A95F1F798E020E080E031E0FC
:104D000040E14A95F1F7880F4A9B02C08160232752
:104D100042E04A95F1F7000040E14A95F1F79150E1
:104D20009111EECF90E19A95F1F799B132E03A9571
:104D3000F1F7000040E14A95F1F792FB992790F9CD
:104D400092272081920F90830895A1E0B0E0EBEAD2
:104D5000F6E20C94492F19828C017C01E60EF11CBD
:104D60000E151F0541F481E09981911180E0219693
:104D7000E6E00C94652FADDFCE010196B9DFF801B6
:104D800081938F01EDCF529A5A9A089552985A9A68
:104D9000EA9AE9E6F0E080818F7C80830895615093
:104DA000770B91E001C0990F6A95EAF7692F90E0BF
:104DB00021E0611108C0992399F05A9A80E28A95FE
:104DC000F1F75A980895362F3823332339F05A9A39
:104DD000922730E23A95F1F76695EBCF5A98F9CFE2
:104DE0005A98ECCFFF920F931F93CF93DF93EC0170
:104DF0008C01060F111DC017D10729F4CDB7DEB7FE
:104E0000E5E00C94662FF9906DDF68E08F2DC7DF29
:104E1000F2CF1F920F920FB60F9211240F931F9390
:104E20002F933F934F935F936F937F938F939F93B2
:104E3000AF93BF93EF93FF93CF93DF930F92CDB7D1
:104E4000DEB7198246DFCE01019652DF082F0695A4
:104E500006950695982F92959570202F2570920FA4
:104E6000292F237096959695920F98279770898190
:104E7000892B811158C0073008F055C080E18A9510
:104E8000F1F75A9A529A82E08A95F1F700C05A983F
:104E900088E0089F80011124D801AD5FBE4F1696AF
:104EA000ED91FC9117973097A9F06091E601709110
:104EB000E70114962D913C911597260F371F1196F7
:104EC0008D919C911297680F791F13964C911397AF
:104ED0008C910995F801ED5FFE4F6381662349F0DF
:104EE0002091E6013091E70184819581820F931F23
:104EF00079DFF8DE80E18A95F1F75A9852985A9A4C
:104F000080E18A95F1F7F801ED5FFE4F608166233D
:104F100049F02091E6013091E70181819281820F71
:104F2000931F13DFD6DE0F90DF91CF91FF91EF91AA
:104F3000BF91AF919F918F917F916F915F914F91B1
:104F40003F912F911F910F910F900FBE0F901F90C7
:104F500018950F931F93CF93DF938C0107970CF055
:104F60005FC0F894529A5A9885E08A95F1F700004C
:104F7000C02FC695C570802F8570C80F8C2F837089
:104F8000C695C69593E0000F111F9A95E1F7C80FDB
:104F9000C8018C2BEC01A6DE00C068E08C2FFFDE80
:104FA00090E19A95F1F752985A9A4A9B31C087E05E
:104FB00090E04A992FC0F801ED5FFE4F63816623B0
:104FC00059F02091E6013091E70184819581820FAB
:104FD000931FBBDE882309F17CDE80E28A95F1F71E
:104FE0005A98529A90E19A95F1F7F801ED5FFE4FC9
:104FF0006081662349F02091E6013091E7018181CB
:105000009281820F931FEEDE6DDE789481E009C0FD
:1050100000C0CBCF0197009749F4529A5A9A7894DE
:1050200080E0DF91CF911F910F91089500C0C1CF13
:1050300080915503089508950895282FCB01BA0152
:10504000309197073430D9F42F702093E9002FEF77
:105050003091E80035FD07C035ED3A95F1F70000D5
:1050600021502111F5CF2091E80025FF08C040E034
:1050700050E0FFD18091E8008E778093E80008959A
:10508000BC0143E050E084E0D8CF0895CF93DF9394
:10509000D82FC92F48E050E0682F792F81E0CDDF6D
:1050A00088E0ED2FFC2FADE4B3E001900D928A95DE
:1050B000E1F7DF91CF910895792F603229F440E232
:1050C00050E0682F82E0B9CF089580919607811152
:1050D00007C0A2D3F9D38091E20084608093E200FC
:1050E0000895109296070895D3CB08956091930781
:1050F00081E0611101C080E0C4CB089590919707D1
:1051000081E0943009F080E060919307BFCB08956F
:1051100042E061EC81E0FCD242E261EC84E0F8D252
:1051200042E261EC82E0F4D242E260EC83E0F0D251
:105130009091970781E0943009F080E060919307A7
:105140009BCB089580919907893081F148F4823092
:1051500009F49DC0833009F459C0813041F00895AD
:105160008A3009F485C08B3009F46BC008958091B2
:105170009807813A09F049C08091E800877F8093C1
:10518000E80080919C0790919D07892B59F060E081
:1051900080E090E070E007D28091E8008B77809308
:1051A000E800089568E08DE493E0F4CF80919807DB
:1051B000813259F580919C0790919D078D7F892BB5
:1051C00021F58091E800877F8093E8008091E800D6
:1051D00082FF17C09091F3008091F200029731F4A2
:1051E0008091F100813011F0863021F48091F1003E
:1051F000809355038091E8008B778093E800BCD2C0
:1052000004C0809197078111E1CF0895809198079C
:10521000813AD9F780919C0790919D07892BA9F736
:105220008091E800877F8093E8008091E80080FF0C
:10523000FCCF809149018093F1008091E8008E7746
:10524000DCCF80919807813201F780919C07909183
:105250009D07892BD1F68091E800877F8093E80035
:105260008BD280919A07809349010C94C50C0895C4
:1052700080919807813249F68091E800877F80937A
:10528000E8007AD280919B0780935603089580911D
:105290009807813A09F0B9CF8091E800877F809321
:1052A000E8008091E80080FFFCCF80915603C3CFD7
:1052B00084B7877F84BF0FB6F894A895809160006B
:1052C000886180936000109260000FBE80E890E0DB
:1052D0000FB6F89480936100909361000FBEDDCA11
:1052E00008959AD2F1D2E2EEF0E08081846080836A
:1052F000789459C508958FE391E0F3C9089580919A
:105300009707853029F480919707853011F03ACBC3
:1053100008950DDB809195078823A9F3C8DA8823C7
:1053200091F391D00E94C50CEECFA0E2B0E0EAE983
:10533000F9E2B3C580919707843081F483E08093CC
:10534000E9008091E80082FF09C08091E80085FDB6
:1053500008C08091E8008B778093E800A096E2E097
:10536000B8C540E050E060E270E0CE010196CED0DA
:105370008091E8008B778093E80060E2CE0101968F
:105380008BD8ECCF9A0140919E0750919F0701C0A6
:105390000895AC01CB01D901252F332723303105E6
:1053A00021F168F42130310509F443C02230310580
:1053B00009F444C080E090E020E030E024C02132D5
:1053C000310551F122323105A9F78330910590F76B
:1053D000FC01EE0FFF1FE55FFD4F20813181885FEB
:1053E0009D4FFC01808190E00EC0CA019927413099
:1053F00069F08230910569F0E3E3FDE0892BD1F695
:10540000849190E09F012D933C930895E5E2FDE0A7
:10541000F7CFE9E1FDE0F4CF8330910558F6FC01C8
:10542000EE0FFF1FEF5EFD4F2081318189E090E09C
:10543000EACF82E190E022E93DE0E5CF8BE590E024
:1054400027E33DE0E0CF80E189BD82E189BD09B479
:1054500000FEFDCF8091D8008F7D8093D800809191
:10546000E00082608093E0008091E00081FDFCCF4D
:105470000895AF92BF92CF92DF92FF920F931F9346
:10548000CF93DF936C01EB018A0195D1F82E811146
:1054900023C00115110539F0F80180819181C81BE5
:1054A000D90BC80ED91EA12CB12C2097A9F0809140
:1054B000E80085FD21C08091E8008E778093E800A8
:1054C00001151105A1F0F801808191818A0D9B1DC4
:1054D0009183808385E0F82E8F2DDF91CF911F91EE
:1054E0000F91FF90DF90CF90BF90AF90089563D160
:1054F0008823E9F2F82EF0CFF60181916F018093B5
:10550000F1002197FFEFAF1ABF0ACFCFAF92BF9242
:10551000CF92DF92FF920F931F93CF93DF936C0193
:10552000EB018A0148D1F82E811123C00115110524
:1055300039F0F80180819181C81BD90BC80ED91EA2
:10554000A12CB12C2097A9F08091E80085FD21C005
:105550008091E8008B778093E80001151105A1F098
:10556000F801808191818A0D9B1D9183808385E064
:10557000F82E8F2DDF91CF911F910F91FF90DF902B
:10558000CF90BF90AF90089516D18823E9F2F82EFE
:10559000F0CF8091F100F60181936F012197FFEF29
:1055A000AF1ABF0ACFCFFC019B0180919E0790915B
:1055B0009F078617970718F0672B61F0C90140E035
:1055C000009771F441110CC08091E80082FF35C052
:1055D00080E008958091E8008E778093E800EECF18
:1055E000209197072223A9F12530A9F12091E80005
:1055F00023FD2DC02091E80022FDE6CF2091E80098
:1056000020FFDECF3091F3002091F200009719F0D7
:105610002830310558F041E02830310509F040E0EC
:105620002091E8002E772093E800CACF4191409363
:10563000F10001972F5F3F4FE9CF809197078823B3
:1056400041F0853041F08091E80083FFBDCF81E0DB
:10565000089582E0089583E00895FC019B01809104
:105660009E0790919F078617970718F0672B61F0A8
:10567000C90140E0009771F441110CC08091E8002D
:1056800082FF36C080E008958091E8008E77809395
:10569000E800EECF209197072223B1F12530B1F138
:1056A0002091E80023FD2EC02091E80022FDE6CFE6
:1056B0002091E80020FFDECF3091F3002091F2002E
:1056C000009719F02830310558F041E028303105B5
:1056D00009F040E02091E8002E772093E800CACF3F
:1056E00044914093F100319601972F5F3F4FE8CFEF
:1056F00080919707882341F0853041F08091E80040
:1057000083FFBCCF81E0089582E0089583E008958F
:10571000982F973028F08F708093E90081E00895EA
:105720009093E900242F762F50E0981731F0709174
:10573000EC002091ED005091F00021FD02C09F5F30
:10574000E8CF3091EB003E7F3093EB003091ED00DD
:105750003D7F3093ED003091EB0031603093EB00F2
:105760007093EC002093ED005093F0002091EE0038
:1057700027FDE5CF80E008958091980787FF13C04B
:105780008091E80082FF06C08091E8008B778093CB
:10579000E80004C0809197078111F2CF08958091AD
:1057A00097078823D9F38091E80080FFF8CF809194
:1057B000E8008E77ECCF2091E4003091E50095E68B
:1057C000A9018091EC008170882331F08091E8007C
:1057D00080FF06C080E008952091E80022FD1BC0F4
:1057E00080919707882391F0853091F08091EB00AC
:1057F00085FD10C02091E4003091E5004217530769
:1058000001F391509111DCCF84E0089582E0089576
:1058100083E0089581E0089568D06FD0E0EEF0E075
:10582000808181608083E8EDF0E080818F778083E4
:1058300019BCA7EDB0E08C918E7F8C9380818F7E18
:1058400080831092960708950F931F93CF93DF9351
:105850004CD053D0C8EDD0E088818F778883888181
:105860008068888388818F7D888319BC1092970710
:1058700010929307109295071092940700EE10E093
:10588000F80180818B7F808388818160888342E0FA
:1058900060E080E03DDFE1EEF0E080818E7F80839C
:1058A000E2EEF0E080818160808380818860808387
:1058B000F80180818E7F8083888180618883DF9179
:1058C000CF911F910F910895E8EDF0E080818F7ED8
:1058D0008083E7EDF0E080818160808384E082BF97
:1058E00081E080939607B0CF0895E8EDF0E08081E5
:1058F0008E7F80831092E20008951092DA00109259
:10590000E10008951F920F920FB60F9211242F936A
:105910003F934F935F936F937F938F939F93AF9337
:10592000BF93EF93FF938091E10082FF0AC08091C3
:10593000E20082FF06C08091E1008B7F8093E1004E
:1059400031D28091DA0080FF18C08091D80080FFAA
:1059500014C08091DA008E7F8093DA008091D900A4
:1059600080FF8FC080E189BD82E189BD09B400FE5E
:10597000FDCF81E080939707A8DB8091E10080FF55
:1059800018C08091E20080FF14C08091E2008E7FF9
:105990008093E2008091E20080618093E200809138
:1059A000D80080628093D80019BC85E08093970767
:1059B0009DDB8091E10084FF28C08091E20084FF9C
:1059C00024C080E189BD82E189BD09B400FEFDCF1C
:1059D0008091D8008F7D8093D8008091E1008F7EE8
:1059E0008093E1008091E2008F7E8093E2008091BD
:1059F000E20081608093E20080919307882309F49C
:105A000045C084E08093970779DB8091E10083FFB4
:105A100027C08091E20083FF23C08091E100877F4F
:105A20008093E10082E08093970710929307809122
:105A3000E1008E7F8093E1008091E2008E7F809371
:105A4000E2008091E20080618093E20042E060E049
:105A500080E05EDE8091F00088608093F00044DB9F
:105A6000FF91EF91BF91AF919F918F917F916F9136
:105A70005F914F913F912F910F900FBE0F901F900C
:105A8000189519BC109297072CDB77CF8091E30013
:105A900087FF02C083E0B6CF81E0B4CF1F920F92A0
:105AA0000FB60F921124FF920F931F932F933F93E2
:105AB0004F935F936F937F938F939F93AF93BF9316
:105AC000CF93DF93EF93FF9309EE10E0F80180810D
:105AD000C091EC00C795CC27C7958F70FC2EF82A93
